:020000040800F2
:100000007804002001010008D3100008670F0008E1
:10001000D11000086D0100088F13000800000000D7
:10002000000000000000000000000000D7100008E1
:100030006F01000800000000D5100008D91000086A
:100040001B0100081B0100081B0100081B01000820
:100050001B0100081B0100081B0100081B01000810
:100060001B0100081B0100081B0100081B01000800
:100070001B0100081B0100081B0100081B010008F0
:100080001B0100081B0100081B0100081B010008E0
:100090001B0100081B0100081B0100081B010008D0
:1000A0001B0100081B0100081B0100081B010008C0
:1000B0001B010008691100081B0100081B01000852
:1000C0001B0100081B0100081B0100081B010008A0
:1000D0001B0100081B0100081B0100081B01000890
:1000E0001B0100081B0100081B010008DFF80CD0F1
:1000F00000F02AF800480047D113000878040020D7
:100100000648804706480047FEE7FEE7FEE7FEE7B1
:10011000FEE7FEE7FEE7FEE7FEE7FEE72111000847
:10012000ED000008D2B201E000F8012B491EFBD21D
:1001300070470022F6E710B513460A4604461946F2
:10014000FFF7F0FF204610BD064C074D06E0E068C3
:1001500040F0010394E8070098471034AC42F6D30E
:10016000FFF7C8FF1414000834140008FEE77047B6
:1001700070B5040003D094F8200010B104E0012011
:1001800070BD204600F082F82068016821F002016D
:10019000016000F0BFF90546052604E000F0BAF959
:1001A000401B0A2811D8206840688007F6D42068D0
:1001B000016841F00101016000F0ACF905460BE077
:1001C00000F0A8F9401B0A2806D9606A40F4003004
:1001D000606284F82060D2E720684068C007EFD0F2
:1001E000207E0128206801683DD021F08001016057
:1001F000607E01282068016838D021F0400101604C
:10020000A07E01282068016833D021F02001016020
:10021000E07E0128206801682ED041F010010160C5
:10022000207F01282068016829D021F008010160A1
:10023000607F01282068016824D021F0040101605A
:10024000D4E902010843D4E9041211430843616868
:10025000491E08432168C86100206062012084F8BB
:100260002000002070BD41F08001C0E741F0400156
:10027000C5E741F02001CAE721F01001CFE741F0C6
:100280000801D4E741F00401D9E7000010B586B0B9
:100290000021009101910291039100681349884265
:1002A00022D11348C16941F00071C161C16901F0F7
:1002B00000710491816941F00401816180690D4CF4
:1002C00000F0040004904FF400600090694620465E
:1002D00000F024F8A0140090022001900320039065
:1002E0006946204600F01AF806B010BD00640040D0
:1002F000001002400008014070B5044600F00AF901
:100300000546601C02D004480078044400F002F95D
:10031000401BA042FAD370BD000000202DE9F84F29
:10032000DFF8B891002409F1040A0AF1040B23460E
:100330000F270BF1040EC9E00125A5402A40AA426F
:100340007DD1674ED1F804C0ACEB0608B44532D07D
:1003500014DCBCF1030F3AD009DCBCF1000F2AD049
:10036000BCF1010F1CD0BCF1020F31D11DE0BCF17A
:10037000110F17D0BCF1120F2AD119E0B8F5881F60
:1003800019D006DCB8F5803F15D0B8F5801F1FD115
:1003900011E0B8F5001F0ED0B8F5041F18D10AE01F
:1003A000CB6815E0CB681B1D12E0CB6808330FE06B
:1003B000CB680C330CE08B682BB1012B4FF008039A
:1003C00003D0456104E0042302E0056100E000235E
:1003D000FF2A01D8064601E000F104064FEA840531
:1003E00001D9A5F12005D6F8008007FA05FC28EA16
:1003F0000C0803FA05F548EA0508C6F800804D68C0
:10040000ED0062D5374DAE6946F00106AE61AD69CB
:1004100024F0030605F001050095334D06EB050CAD
:10042000DCF80850A607360F07FA06F825EA080593
:10043000DFF8B880404503D14FF0000817E044E0F2
:10044000DFF8AC80404502D14FF001080FE0DFF843
:10045000A480404502D14FF0020808E0DFF8988000
:10046000404502D14FF0030801E04FF0040808FABC
:1004700006F848EA0508CCF808804D68D9F800600D
:10048000ED034D4601D5164300E096432E604D68BE
:10049000DAF80060AD03554601D5164300E09643F7
:1004A0002E604D68DBF80060ED025D4601D5164315
:1004B00000E096432E604D68DEF80060AD027546A0
:1004C00001D5164300E096432E60641C0D682A4651
:1004D000E5407FF431AFBDE8F88F00000004014033
:1004E000000011100010024000000140000801400F
:1004F000000C01400010014000140140C2680A4293
:1005000001D041617047016170470AB101617047D4
:100510000904FBE7014880687047000000000020E4
:100520000248816802781144816070470000002011
:10053000074810B5016841F010010160032000F088
:1005400075F8002000F006F800F024F8002010BD37
:100550000020024070B50D4D04464FF47A712878A2
:10056000B1FBF0F00A490968B1FBF0F000F0CCFAF9
:1005700048B9102C07D200222146501E00F036F850
:1005800000206C6070BD012070BD000000000020E4
:100590000C0000200C4808B5816941F0010181611F
:1005A000816901F001010091C16941F08051C1618F
:1005B000C06900F0805000900448416821F0E0617B
:1005C00041F08061416008BD001002400000014020
:1005D000002809DB00F01F02012191404009800042
:1005E00000F1E020C0F8001170470000F0B40E4B9D
:1005F0001B680C46C3F30223C3F10705042D00D981
:100600000425191D072901D2002300E0DB1E012665
:1006100006FA05F1491E214099409E40761E16407B
:100620003143F0BC00F0B4BE0CED00E0064900F030
:10063000070208684FF6FF03184040EA0220034A09
:1006400010430860704700000CED00E00000FA0560
:100650002DE9F0470F46050061D0434E306800F0A9
:100660000700B84209D2306820F0070038433060F4
:10067000306800F00700B84251D128683B4C810730
:1006800012D5400703D5606840F4E06060602878C8
:10069000000703D5606840F4605060606068A96836
:1006A00020F0F000084360602878C00728D0686810
:1006B000012810D02168022810D0890700292EDADD
:1006C000616821F0030101436160FFF723FF804669
:1006D00041F288390DE021688903EFE78901EDE7F0
:1006E000FFF718FFA0EB0801494502D90320BDE838
:1006F000F0876068696800F00C00B0EB810FEFD103
:10070000306800F00700B8420BD9306820F00700CD
:1007100038433060306800F00700B84201D0012053
:10072000E5E72878400705D56068E96820F4E060CF
:10073000084360602878000706D56068296920F4BE
:10074000605040EAC100606000F018F86168084A33
:10075000C1F30311515CC8400649086006480068AF
:10076000FFF7F8FE0020C2E7002002400010024020
:10077000041400080C0000200400002012A185B021
:100780000FC98DE80F0014A0144A00680490516846
:10079000134801F00C03042B10D0082B0ED1C1F329
:1007A0008343C9031DF803000AD5516804AAC1F3A5
:1007B0004041515C0A4A5043B0FBF1F005B070472C
:1007C00008494843FAE70000020304050607080940
:1007D0000A0B0C0D0E0F1010010200000010024059
:1007E00000127A0000093D002DE9F84F040070D096
:1007F0002078C04DC00749D06868C0F38100012847
:1008000007D06868C0F38100022809D16868C00376
:1008100006D52868800339D560680028E7D035E020
:100820006068B0F5803F0BD010B1B0F5A02F11D0AB
:10083000286820F480302860286820F4802002E0B6
:10084000286840F480302860606890B1FFF762FE4D
:1008500006460AE0286840F480202860F0E700BFE0
:10086000FFF758FE801B642873D828688003F7D5EB
:100870000CE0FFF74FFE064605E000BFFFF74AFE1B
:10088000801B6428F0D828688003F7D420789A4E1B
:1008900080074FF001094FF0000839D5686810F063
:1008A0000C0F07D06868C0F38100022809D168687E
:1008B000C00306D42868800714D52069012808D110
:1008C00010E02069B0B1C6F80090FFF723FE07469C
:1008D00005E00AE1FFF71EFEC01B0228C4D8286805
:1008E0008007F7D52868616920F0F80040EAC10068
:1008F00028600DE0C6F80080FFF70CFE074604E014
:10090000FFF708FEC01B022823D828688007F7D409
:10091000207800072CD57948A169D9B1C0F800909A
:10092000FFF7F8FD074604E0FFF7F4FDC01B0228BF
:100930000FD8686A8007F7D571484FF4FA510068FC
:10094000B0FBF1F0009000BF0098411E0091FAD278
:100950000EE080E0C0F80080FFF7DCFD074604E011
:10096000FFF7D8FDC01B022875D8686A8007F7D446
:100970002078400760D5E8690027C00008D4E869FE
:1009800040F08050E861E869012700F08050009055
:100990005C480168C90513D40168834641F480713D
:1009A0000160FFF7B7FD824606E000BFFFF7B2FD2A
:1009B000A0EB0A0064284ED8DBF80000C005F5D58E
:1009C000E06801280AD008B1052813D0286A20F071
:1009D00001002862286A20F0040002E0286A40F042
:1009E00001002862E06841F2883B98B1FFF792FD70
:1009F00082460BE0286A40F004002862EEE700BF60
:100A0000FFF788FDA0EB0A0159455AD8286A8007EC
:100A1000F6D50CE0FFF77EFD824605E0FFF77AFD94
:100A2000A0EB0A0159454CD8286A8007F6D41FB1BB
:100A3000E86920F08050E861E06988B36968C1F333
:100A40008101022944D00228C6F8608004D0FFF753
:100A500061FD044638E034E0FFF75CFD074604E042
:100A6000FFF758FDC01B02282BD828688001F7D457
:100A7000206AB0F5803F05D16868A16820F4003095
:100A800008436860D4E908010843696821F47411D7
:100A900008436860C6F86090FFF73CFD044606E036
:100AA00025E000BFFFF736FD001B022809D82868A3
:100AB0008001F7D51BE000BFFFF72CFD001B0228CB
:100AC00002D90320BDE8F88F28688001F4D40EE035
:100AD0000128F7D06868226A00F48031914204D17D
:100AE000616A00F47010884201D00120EAE700201A
:100AF000E8E7000000100240000042428004424249
:100B00000C0000200070004010B5401EB0F1807F46
:100B100001D3012010BD4FF0E02460610F21601768
:100B200000F036FC0020A06107202061002010BDED
:100B30007047704770B590F83C20012A19D0012405
:100B400000F83C4F0222427050F83C3C5A689D68C5
:100B500022F070060A684968324325F0800529436F
:100B60005A6050F83C2C9160447000210170084696
:100B700070BD022070BD10B5040003D094F83D0094
:100B800010B107E0012010BD002084F83C00204691
:100B900000F00CF8022084F83D00211D206800F0D0
:100BA000E9FA012084F83D00002010BD00B585B0B1
:100BB000002100910191029103910068134988423C
:100BC00021D11348C16941F00201C161C16901F03D
:100BD00002010491816941F00801816180696946DF
:100BE00000F0080004900120009002200190039082
:100BF0000848FFF793FB002211461D20FFF7F6FC83
:100C00001D20FFF7E5FC05B000BD0000000400401A
:100C100000100240000C014070B5044690F83C0002
:100C2000012817D0012584F83C50022084F83D00AB
:100C30002068826822F0770222F47F42826008688E
:100C4000502830D00DDC20284DD005DC98B310287A
:100C50003BD148E0022070BD302844D0402834D138
:100C600039E0602828D0702806D0B0F5805F2CD0FD
:100C7000B0F5005F29D10AE0CB68D1E901212068F5
:100C800000F0AEFA2068816841F0770109E0CB6896
:100C9000D1E90121206800F0A3FA2068816841F4BD
:100CA0008041816011E0CA684968206800F04CFB0F
:100CB0005021206807E016E0CA684968206800F003
:100CC00054FB6021206800F095FA84F83D50002024
:100CD00084F83C0070BDCA684968206800F034FBA5
:100CE00040212068EFE7226801461046EBE7704795
:100CF00070B50446006801694FF00005C9438907D3
:100D000015D4C168C943890711D4E91E01610120C6
:100D10002077206880698007204602D0FFF7E7FF30
:100D200004E000F098F8204600F01AF925772068D2
:100D30000169C943490717D4C168C943490713D496
:100D40006FF004010161022020772068806910F4AF
:100D5000407F204602D0FFF7CAFF04E000F07BF896
:100D6000204600F0FDF8257720680169C94309078E
:100D700016D4C168C943090712D46FF00801016194
:100D8000042020772068C0698007204602D0FFF742
:100D9000AEFF04E000F05FF8204600F0E1F82577B0
:100DA00020680169C943C90617D4C168C943C90687
:100DB00013D46FF010010161082020772068C0690A
:100DC00010F4407F204602D0FFF791FF04E000F0CE
:100DD00042F8204600F0C4F8257720680169C9432D
:100DE000C90708D1C168C943C90704D1891E016177
:100DF000204600F0B6F820680169C943090609D405
:100E0000C168C943090605D46FF08001016120461D
:100E1000FFF78EFE20680169C943490609D4C168FD
:100E2000C943490605D46FF040010161204600F036
:100E300099F820680169C94389060BD4C168C94380
:100E4000890607D46FF0200101612046BDE870409B
:100E5000FFF76FBE70BD704770B5044690F83C0058
:100E60000D4601280DD0012684F83C60022084F84C
:100E70003D0042B1042A18D0082A2AD00C2A4DD1AC
:100E800039E0022070BD206800F0BCF9206881695B
:100E900041F0080181612068816921F004018161CC
:100EA000206881692A69114311E0206800F0D2F9B5
:100EB0002068816941F4006181612068816921F4C1
:100EC00080618161206881692A6941EA022181612A
:100ED00024E0206800F0EAF92068C16941F00801C7
:100EE000C1612068C16921F00401C1612068C16944
:100EF0002A69114311E0206800F004FA2068C169F2
:100F000041F40061C1612068C16921F48061C1615F
:100F10002068C1692A6941EA0221C16184F83D6003
:100F2000002084F83C0070BD10B5040003D094F894
:100F30003D0010B107E0012010BD002084F83C0006
:100F4000204600F00CF8022084F83D00211D2068A6
:100F500000F010F9012084F83D00002010BD70471A
:100F6000704770477047FEE7094808490160102143
:100F7000416000218160C16001614161017641767B
:100F80008176C17601774177FFF7F2B800640040BF
:100F9000100000202DE9F04186B000242C48009478
:100FA000019402940394816941F010018161816987
:100FB00001F010010491816941F0080181618169AA
:100FC00001F008010491816941F0040181618069A7
:100FD000DFF8808000F004004FF4085504900022F0
:100FE00029464046FFF791FA1B4F0022022138465E
:100FF000FFF78BFA0126CDE90056022569464046E7
:10100000CDE90245FFF78AF95020CDE90004694691
:1010100040460294FFF782F9CDE90056694638460A
:10102000CDE90245FFF77AF94FF4C840CDE9000455
:10103000694638460294FFF771F9E80100900320F1
:10104000019069464046FFF769F906B0BDE8F081B6
:101050000010024000100140000C014010B58EB09D
:1010600000240794089409940A940B941C21684660
:101070000C94FFF75EF81548134901604FF4C871EE
:10108000C0E90114C46004618461FFF774FD4FF48A
:101090008050079007A90D48FFF7BEFD0B48FFF7EA
:1010A00043FF0B940BA909480C94FFF743FD602004
:1010B000CDE9000402940C22694604480494FFF729
:1010C000CBFE0EB010BD0000000400403800002030
:1010D000FEE7704770477047FFF722BA10B590B02F
:1010E00028216846FFF725F814210AA8FFF721F800
:1010F0000220009001200490102000240590079405
:101100006846FFF771FB0F20CDE90A040C940D949B
:1011100000210AA80E94FFF79BFA10B010BD000042
:101120000D48016841F00101016041680B4A11401E
:10113000416001680A4A11400160016821F4802180
:101140000160416821F4FE0141604FF41F0181609C
:101150000449C00308607047001002400000FFF817
:10116000FFFFF6FE08ED00E00148FFF7C1BD0000FB
:1011700038000020F0B50268164B174C174D4FF0A1
:101180008047984205D0B84203D0A04201D0A8427F
:1011900003D122F070064A683243984205D0B84223
:1011A00003D0A04201D0A84203D122F44074CA68FF
:1011B00022434C6922F08002224302608A68C262A4
:1011C0000A688262984201D1096901630121416183
:1011D000F0BD0000002C0140000400400008004069
:1011E00010B5846842EA032224F47F440A43224370
:1011F000826010BD826822F070020A4342F007014B
:101200008160704730B5026A22F001020262026A10
:101210004368846924F073050C682C4322F00205AE
:101220008A682A430A4DA8420BD122F00805CA68F1
:1012300023F440732A434D6922F004021D438B6955
:101240002B434360846149684163026230BD000002
:10125000002C014030B5026A22F010020262026ADC
:10126000436884690D6824F4E64444EA05248D68E3
:1012700022F0200242EA05120B4DA8420ED1CD68A1
:1012800022F0800242EA05124D6923F4406343EAEA
:1012900085038D6922F0400243EA8503436084613F
:1012A00049688163026230BD002C014030B5026A9A
:1012B00022F480720262036A4268C46923F40073F4
:1012C00024F073050C682C438D6843EA05230C4D0C
:1012D000A8420ED1CD6823F4006343EA05234D698B
:1012E00022F4405242EA05128D6923F4806342EAF7
:1012F00005124260C4614968C163036230BD0000E9
:10130000002C014030B5026A22F480520262046A65
:101310004268C3690D6823F4E64343EA05238D68F8
:1013200024F4005444EA0534064DA84204D14D6922
:1013300022F4804242EA85124260C3614968016436
:10134000046230BD002C014010B5036A046A24F029
:1013500001040462846924F0F00444EA021423F0D6
:101360000A020A438461026210BD10B5036A23F0C9
:10137000100303628369046A23F4704343EA023270
:1013800024F0A00343EA01118261016210BDFEE76F
:101390000907090E002804DB00F1E02080F80014A2
:1013A000704700F00F0000F1E02080F8141D704736
:1013B00002E008C8121F08C1002AFAD1704770471E
:1013C000002001E001C1121F002AFBD1704700007C
:1013D000FFF7AEF8FFF782FEFFF7DCFDFFF7C4FD75
:1013E000FFF73CFE064D4FF400744FF4FA762146A9
:1013F0002846FFF783F83046FEF77EFFF7E7000048
:101400000010014000000000000000000102030481
:10141000060708093414000800000020100000002E
:10142000B0130008441400081000002068040000F5
:10143000C0130008010000001000000000000000C0
:041440000024F40090
:04000005080000ED02
:00000001FF
